{
  "contractName": "FuturesFactory",
  "abi": [
    {
      "constant": true,
      "inputs": [],
      "name": "count",
      "outputs": [
        {
          "name": "",
          "type": "uint256"
        }
      ],
      "payable": false,
      "stateMutability": "view",
      "type": "function"
    },
    {
      "constant": true,
      "inputs": [],
      "name": "oracleClient",
      "outputs": [
        {
          "name": "",
          "type": "address"
        }
      ],
      "payable": false,
      "stateMutability": "view",
      "type": "function"
    },
    {
      "constant": true,
      "inputs": [],
      "name": "market",
      "outputs": [
        {
          "name": "",
          "type": "string"
        }
      ],
      "payable": false,
      "stateMutability": "view",
      "type": "function"
    },
    {
      "constant": true,
      "inputs": [
        {
          "name": "",
          "type": "uint256"
        }
      ],
      "name": "futures",
      "outputs": [
        {
          "name": "maker",
          "type": "address"
        },
        {
          "name": "taker",
          "type": "address"
        },
        {
          "name": "value",
          "type": "uint256"
        },
        {
          "name": "thing",
          "type": "string"
        },
        {
          "name": "expiry",
          "type": "uint256"
        },
        {
          "name": "terminated",
          "type": "bool"
        }
      ],
      "payable": false,
      "stateMutability": "view",
      "type": "function"
    },
    {
      "constant": true,
      "inputs": [
        {
          "name": "",
          "type": "address"
        }
      ],
      "name": "margin",
      "outputs": [
        {
          "name": "",
          "type": "uint256"
        }
      ],
      "payable": false,
      "stateMutability": "view",
      "type": "function"
    },
    {
      "constant": true,
      "inputs": [
        {
          "name": "",
          "type": "address"
        },
        {
          "name": "",
          "type": "uint256"
        }
      ],
      "name": "futuresBySeller",
      "outputs": [
        {
          "name": "",
          "type": "uint256"
        }
      ],
      "payable": false,
      "stateMutability": "view",
      "type": "function"
    },
    {
      "constant": true,
      "inputs": [],
      "name": "token",
      "outputs": [
        {
          "name": "",
          "type": "address"
        }
      ],
      "payable": false,
      "stateMutability": "view",
      "type": "function"
    },
    {
      "inputs": [
        {
          "name": "_market",
          "type": "string"
        },
        {
          "name": "_token",
          "type": "address"
        },
        {
          "name": "_oracle",
          "type": "address"
        }
      ],
      "payable": false,
      "stateMutability": "nonpayable",
      "type": "constructor"
    },
    {
      "payable": true,
      "stateMutability": "payable",
      "type": "fallback"
    },
    {
      "anonymous": false,
      "inputs": [
        {
          "indexed": true,
          "name": "who",
          "type": "address"
        },
        {
          "indexed": true,
          "name": "amount",
          "type": "uint256"
        }
      ],
      "name": "Permit",
      "type": "event"
    },
    {
      "anonymous": false,
      "inputs": [
        {
          "indexed": true,
          "name": "taker",
          "type": "address"
        },
        {
          "indexed": true,
          "name": "id",
          "type": "uint256"
        },
        {
          "indexed": false,
          "name": "expiry",
          "type": "uint256"
        }
      ],
      "name": "Build",
      "type": "event"
    },
    {
      "anonymous": false,
      "inputs": [
        {
          "indexed": true,
          "name": "striker",
          "type": "address"
        },
        {
          "indexed": true,
          "name": "id",
          "type": "uint256"
        },
        {
          "indexed": false,
          "name": "time",
          "type": "uint256"
        }
      ],
      "name": "Strike",
      "type": "event"
    },
    {
      "anonymous": false,
      "inputs": [
        {
          "indexed": true,
          "name": "value",
          "type": "uint256"
        }
      ],
      "name": "Log",
      "type": "event"
    },
    {
      "constant": false,
      "inputs": [
        {
          "name": "_amount",
          "type": "uint256"
        }
      ],
      "name": "deposit",
      "outputs": [
        {
          "name": "done",
          "type": "bool"
        }
      ],
      "payable": false,
      "stateMutability": "nonpayable",
      "type": "function"
    },
    {
      "constant": false,
      "inputs": [
        {
          "name": "_amount",
          "type": "uint256"
        }
      ],
      "name": "permit",
      "outputs": [
        {
          "name": "done",
          "type": "bool"
        }
      ],
      "payable": false,
      "stateMutability": "nonpayable",
      "type": "function"
    },
    {
      "constant": false,
      "inputs": [
        {
          "name": "_market",
          "type": "string"
        }
      ],
      "name": "quote",
      "outputs": [
        {
          "name": "value",
          "type": "uint256"
        }
      ],
      "payable": false,
      "stateMutability": "nonpayable",
      "type": "function"
    },
    {
      "constant": false,
      "inputs": [
        {
          "components": [
            {
              "name": "maker",
              "type": "address"
            },
            {
              "name": "taker",
              "type": "address"
            },
            {
              "name": "value",
              "type": "uint256"
            },
            {
              "name": "thing",
              "type": "string"
            },
            {
              "name": "expiry",
              "type": "uint256"
            },
            {
              "name": "terminated",
              "type": "bool"
            }
          ],
          "name": "_future",
          "type": "tuple"
        },
        {
          "name": "_sig",
          "type": "bytes"
        }
      ],
      "name": "build",
      "outputs": [
        {
          "name": "done",
          "type": "bool"
        }
      ],
      "payable": false,
      "stateMutability": "nonpayable",
      "type": "function"
    },
    {
      "constant": false,
      "inputs": [
        {
          "name": "_id",
          "type": "uint256"
        }
      ],
      "name": "strike",
      "outputs": [
        {
          "name": "done",
          "type": "bool"
        }
      ],
      "payable": false,
      "stateMutability": "nonpayable",
      "type": "function"
    }
  ],
  "bytecode": "0x60806040523480156200001157600080fd5b50604051620021a3380380620021a3833981018060405262000037919081019062000205565b82600190805190602001906200004f929190620000e2565b5081600260006101000a81548173ffffffffffffffffffffffffffffffffffffffff021916908373ffffffffffffffffffffffffffffffffffffffff1602179055506000600381905550806000806101000a81548173ffffffffffffffffffffffffffffffffffffffff021916908373ffffffffffffffffffffffffffffffffffffffff16021790555050505062000325565b828054600181600116156101000203166002900490600052602060002090601f016020900481019282601f106200012557805160ff191683800117855562000156565b8280016001018555821562000156579182015b828111156200015557825182559160200191906001019062000138565b5b50905062000165919062000169565b5090565b6200018e91905b808211156200018a57600081600090555060010162000170565b5090565b90565b60006200019f8251620002cf565b905092915050565b600082601f8301121515620001bb57600080fd5b8151620001d2620001cc82620002a2565b62000274565b91508082526020830160208301858383011115620001ef57600080fd5b620001fc838284620002ef565b50505092915050565b6000806000606084860312156200021b57600080fd5b600084015167ffffffffffffffff8111156200023657600080fd5b6200024486828701620001a7565b9350506020620002578682870162000191565b92505060406200026a8682870162000191565b9150509250925092565b6000604051905081810181811067ffffffffffffffff821117156200029857600080fd5b8060405250919050565b600067ffffffffffffffff821115620002ba57600080fd5b601f19601f8301169050602081019050919050565b600073ffffffffffffffffffffffffffffffffffffffff82169050919050565b60005b838110156200030f578082015181840152602081019050620002f2565b838111156200031f576000848401525b50505050565b611e6e80620003356000396000f3006080604052600436106100ba576000357c0100000000000000000000000000000000000000000000000000000000900463ffffffff16806306661abd146100bc578063088f0dc2146100e75780634674dce31461012457806377aab2d41461016157806380f556051461018c57806384fed66e146101b75780638a1a110d146101f4578063b6b55f2514610236578063beb3ed5d14610273578063d0c3bb77146102b0578063e09e0816146102ed578063fc0c546a1461032a575b005b3480156100c857600080fd5b506100d1610355565b6040516100de9190611c75565b60405180910390f35b3480156100f357600080fd5b5061010e60048036036101099190810190611780565b61035b565b60405161011b9190611c75565b60405180910390f35b34801561013057600080fd5b5061014b6004803603610146919081019061182d565b610421565b6040516101589190611b58565b60405180910390f35b34801561016d57600080fd5b50610176610632565b6040516101839190611bb8565b60405180910390f35b34801561019857600080fd5b506101a1610657565b6040516101ae9190611bd3565b60405180910390f35b3480156101c357600080fd5b506101de60048036036101d9919081019061182d565b6106f5565b6040516101eb9190611b58565b60405180910390f35b34801561020057600080fd5b5061021b6004803603610216919081019061182d565b610854565b60405161022d96959493929190611ac7565b60405180910390f35b34801561024257600080fd5b5061025d6004803603610258919081019061182d565b610975565b60405161026a9190611b58565b60405180910390f35b34801561027f57600080fd5b5061029a600480360361029591908101906116f2565b610c67565b6040516102a79190611c75565b60405180910390f35b3480156102bc57600080fd5b506102d760048036036102d291908101906117c1565b610c7f565b6040516102e49190611b58565b60405180910390f35b3480156102f957600080fd5b50610314600480360361030f919081019061171b565b61125a565b6040516103219190611c75565b60405180910390f35b34801561033657600080fd5b5061033f61128a565b60405161034c9190611a83565b60405180910390f35b60035481565b60008060009054906101000a900473ffffffffffffffffffffffffffffffffffffffff1673ffffffffffffffffffffffffffffffffffffffff16633592d0166040518163ffffffff167c0100000000000000000000000000000000000000000000000000000000028152600401602060405180830381600087803b1580156103e257600080fd5b505af11580156103f6573d6000803e3d6000fd5b505050506040513d601f19601f8201168201806040525061041a9190810190611856565b9050919050565b6000803373ffffffffffffffffffffffffffffffffffffffff166005600085815260200190815260200160002060010160009054906101000a900473ffffffffffffffffffffffffffffffffffffffff1673ffffffffffffffffffffffffffffffffffffffff1614806104f557503373ffffffffffffffffffffffffffffffffffffffff166005600085815260200190815260200160002060000160009054906101000a900473ffffffffffffffffffffffffffffffffffffffff1673ffffffffffffffffffffffffffffffffffffffff16145b1515610536576040517f08c379a000000000000000000000000000000000000000000000000000000000815260040161052d90611c15565b60405180910390fd5b42600560008581526020019081526020016000206004015411151515610591576040517f08c379a000000000000000000000000000000000000000000000000000000000815260040161058890611c55565b60405180910390fd5b6005600084815260200190815260200160002060020154905060016005600085815260200190815260200160002060050160006101000a81548160ff021916908315150217905550823373ffffffffffffffffffffffffffffffffffffffff167f0fa711b8ab6041b70f72ba6c16b2d0764ed34ca7c987d5c536a978e7d80c7d00426040516106209190611c75565b60405180910390a36001915050919050565b6000809054906101000a900473ffffffffffffffffffffffffffffffffffffffff1681565b60018054600181600116156101000203166002900480601f0160208091040260200160405190810160405280929190818152602001828054600181600116156101000203166002900480156106ed5780601f106106c2576101008083540402835291602001916106ed565b820191906000526020600020905b8154815290600101906020018083116106d057829003601f168201915b505050505081565b6000813373ffffffffffffffffffffffffffffffffffffffff167f279fb6e1b28990ec0c5d9b28b309cbc6aaacdc932df830754aee216ca288216360405160405180910390a3813073ffffffffffffffffffffffffffffffffffffffff167f279fb6e1b28990ec0c5d9b28b309cbc6aaacdc932df830754aee216ca288216360405160405180910390a3600260009054906101000a900473ffffffffffffffffffffffffffffffffffffffff1673ffffffffffffffffffffffffffffffffffffffff1663095ea7b330846040518363ffffffff167c01000000000000000000000000000000000000000000000000000000000281526004016107f8929190611b2f565b602060405180830381600087803b15801561081257600080fd5b505af1158015610826573d6000803e3d6000fd5b505050506040513d601f19601f8201168201806040525061084a9190810190611757565b5060019050919050565b60056020528060005260406000206000915090508060000160009054906101000a900473ffffffffffffffffffffffffffffffffffffffff16908060010160009054906101000a900473ffffffffffffffffffffffffffffffffffffffff1690806002015490806003018054600181600116156101000203166002900480601f0160208091040260200160405190810160405280929190818152602001828054600181600116156101000203166002900480156109525780601f1061092757610100808354040283529160200191610952565b820191906000526020600020905b81548152906001019060200180831161093557829003601f168201915b5050505050908060040154908060050160009054906101000a900460ff16905086565b6000817f909c57d5c6ac08245cf2a6de3900e2b868513fa59099b92b27d8db823d92df9c60405160405180910390a2600260009054906101000a900473ffffffffffffffffffffffffffffffffffffffff1673ffffffffffffffffffffffffffffffffffffffff1663dd62ed3e33306040518363ffffffff167c0100000000000000000000000000000000000000000000000000000000028152600401610a1d929190611a9e565b602060405180830381600087803b158015610a3757600080fd5b505af1158015610a4b573d6000803e3d6000fd5b505050506040513d601f19601f82011682018060405250610a6f9190810190611856565b7f909c57d5c6ac08245cf2a6de3900e2b868513fa59099b92b27d8db823d92df9c60405160405180910390a2600260009054906101000a900473ffffffffffffffffffffffffffffffffffffffff1673ffffffffffffffffffffffffffffffffffffffff1663095ea7b330846040518363ffffffff167c0100000000000000000000000000000000000000000000000000000000028152600401610b14929190611b2f565b602060405180830381600087803b158015610b2e57600080fd5b505af1158015610b42573d6000803e3d6000fd5b505050506040513d601f19601f82011682018060405250610b669190810190611757565b50600260009054906101000a900473ffffffffffffffffffffffffffffffffffffffff1673ffffffffffffffffffffffffffffffffffffffff1663dd62ed3e33306040518363ffffffff167c0100000000000000000000000000000000000000000000000000000000028152600401610be0929190611a9e565b602060405180830381600087803b158015610bfa57600080fd5b505af1158015610c0e573d6000803e3d6000fd5b505050506040513d601f19601f82011682018060405250610c329190810190611856565b7f909c57d5c6ac08245cf2a6de3900e2b868513fa59099b92b27d8db823d92df9c60405160405180910390a260019050919050565b60066020528060005260406000206000915090505481565b60008060008460000151856040015186606001518760800151604051602001808573ffffffffffffffffffffffffffffffffffffffff1673ffffffffffffffffffffffffffffffffffffffff166c0100000000000000000000000002815260140184815260200183805190602001908083835b602083101515610d175780518252602082019150602081019050602083039250610cf2565b6001836020036101000a0380198251168184511680821785525050505050509050018281526020019450505050506040516020818303038152906040526040518082805190602001908083835b602083101515610d895780518252602082019150602081019050602083039250610d64565b6001836020036101000a03801982511681845116808217855250505050505090500191505060405180910390209150610dc582600019166112b0565b9050610dd1818561136b565b73ffffffffffffffffffffffffffffffffffffffff16856000015173ffffffffffffffffffffffffffffffffffffffff16141515610e44576040517f08c379a0000000000000000000000000000000000000000000000000000000008152600401610e3b90611c35565b60405180910390fd5b600260009054906101000a900473ffffffffffffffffffffffffffffffffffffffff1673ffffffffffffffffffffffffffffffffffffffff1663dd62ed3e33306040518363ffffffff167c0100000000000000000000000000000000000000000000000000000000028152600401610ebd929190611a9e565b602060405180830381600087803b158015610ed757600080fd5b505af1158015610eeb573d6000803e3d6000fd5b505050506040513d601f19601f82011682018060405250610f0f9190810190611856565b7f909c57d5c6ac08245cf2a6de3900e2b868513fa59099b92b27d8db823d92df9c60405160405180910390a2610f4885604001516106f5565b1515610f89576040517f08c379a0000000000000000000000000000000000000000000000000000000008152600401610f8090611bf5565b60405180910390fd5b600260009054906101000a900473ffffffffffffffffffffffffffffffffffffffff1673ffffffffffffffffffffffffffffffffffffffff1663dd62ed3e33306040518363ffffffff167c0100000000000000000000000000000000000000000000000000000000028152600401611002929190611a9e565b602060405180830381600087803b15801561101c57600080fd5b505af1158015611030573d6000803e3d6000fd5b505050506040513d601f19601f820116820180604052506110549190810190611856565b7f909c57d5c6ac08245cf2a6de3900e2b868513fa59099b92b27d8db823d92df9c60405160405180910390a260046000866000015173ffffffffffffffffffffffffffffffffffffffff1673ffffffffffffffffffffffffffffffffffffffff16815260200190815260200160002060035490806001815401808255809150509060018203906000526020600020016000909192909190915055508460056000600354815260200190815260200160002060008201518160000160006101000a81548173ffffffffffffffffffffffffffffffffffffffff021916908373ffffffffffffffffffffffffffffffffffffffff16021790555060208201518160010160006101000a81548173ffffffffffffffffffffffffffffffffffffffff021916908373ffffffffffffffffffffffffffffffffffffffff1602179055506040820151816002015560608201518160030190805190602001906111b9929190611433565b506080820151816004015560a08201518160050160006101000a81548160ff0219169083151502179055509050506003600081548092919060010191905055506003543373ffffffffffffffffffffffffffffffffffffffff167f26762795cda5552a98dbf495f5525efb05f3d55c5764fa0c6cfaa27150fe180787608001516040516112469190611c75565b60405180910390a360019250505092915050565b60046020528160005260406000208181548110151561127557fe5b90600052602060002001600091509150505481565b600260009054906101000a900473ffffffffffffffffffffffffffffffffffffffff1681565b60008160405160200180807f19457468657265756d205369676e6564204d6573736167653a0a333200000000815250601c0182600019166000191681526020019150506040516020818303038152906040526040518082805190602001908083835b6020831015156113375780518252602082019150602081019050602083039250611312565b6001836020036101000a03801982511681845116808217855250505050505090500191505060405180910390209050919050565b60008060008060418551141515611385576000935061142a565b6020850151925060408501519150606085015160001a9050601b8160ff1610156113b057601b810190505b601b8160ff16141580156113c85750601c8160ff1614155b156113d6576000935061142a565b600186828585604051600081526020016040526040516113f99493929190611b73565b60206040516020810390808403906000865af115801561141d573d6000803e3d6000fd5b5050506020604051035193505b50505092915050565b828054600181600116156101000203166002900490600052602060002090601f016020900481019282601f1061147457805160ff19168380011785556114a2565b828001600101855582156114a2579182015b828111156114a1578251825591602001919060010190611486565b5b5090506114af91906114b3565b5090565b6114d591905b808211156114d15760008160009055506001016114b9565b5090565b90565b60006114e48235611d99565b905092915050565b60006114f88235611db9565b905092915050565b600061150c8251611db9565b905092915050565b600082601f830112151561152757600080fd5b813561153a61153582611cbd565b611c90565b9150808252602083016020830185838301111561155657600080fd5b611561838284611de1565b50505092915050565b600082601f830112151561157d57600080fd5b813561159061158b82611ce9565b611c90565b915080825260208301602083018583830111156115ac57600080fd5b6115b7838284611de1565b50505092915050565b600082601f83011215156115d357600080fd5b81356115e66115e182611d15565b611c90565b9150808252602083016020830185838301111561160257600080fd5b61160d838284611de1565b50505092915050565b600060c0828403121561162857600080fd5b61163260c0611c90565b90506000611642848285016114d8565b6000830152506020611656848285016114d8565b602083015250604061166a848285016116ca565b604083015250606082013567ffffffffffffffff81111561168a57600080fd5b6116968482850161156a565b60608301525060806116aa848285016116ca565b60808301525060a06116be848285016114ec565b60a08301525092915050565b60006116d68235611dc5565b905092915050565b60006116ea8251611dc5565b905092915050565b60006020828403121561170457600080fd5b6000611712848285016114d8565b91505092915050565b6000806040838503121561172e57600080fd5b600061173c858286016114d8565b925050602061174d858286016116ca565b9150509250929050565b60006020828403121561176957600080fd5b600061177784828501611500565b91505092915050565b60006020828403121561179257600080fd5b600082013567ffffffffffffffff8111156117ac57600080fd5b6117b8848285016115c0565b91505092915050565b600080604083850312156117d457600080fd5b600083013567ffffffffffffffff8111156117ee57600080fd5b6117fa85828601611616565b925050602083013567ffffffffffffffff81111561181757600080fd5b61182385828601611514565b9150509250929050565b60006020828403121561183f57600080fd5b600061184d848285016116ca565b91505092915050565b60006020828403121561186857600080fd5b6000611876848285016116de565b91505092915050565b61188881611d4c565b82525050565b61189781611d6c565b82525050565b6118a681611d78565b82525050565b6118b581611dcf565b82525050565b60006118c682611d41565b8084526118da816020860160208601611df0565b6118e381611e23565b602085010191505092915050565b6000602482527f46757475726573466163746f7279236275696c643a20415050524f56414c5f4560208301527f52524f52000000000000000000000000000000000000000000000000000000006040830152606082019050919050565b6000602d82527f46757475726573466163746f727923737472696b653a204e4f545f465554555260208301527f455f5041525449434950414e54000000000000000000000000000000000000006040830152606082019050919050565b6000602682527f46757475726573466163746f7279236275696c643a20494e434f52524543545f60208301527f5349474e455200000000000000000000000000000000000000000000000000006040830152606082019050919050565b6000602782527f46757475726573466163746f727923737472696b653a20494e4144455155415460208301527f455f46554e4453000000000000000000000000000000000000000000000000006040830152606082019050919050565b611a6e81611d82565b82525050565b611a7d81611d8c565b82525050565b6000602082019050611a98600083018461187f565b92915050565b6000604082019050611ab3600083018561187f565b611ac0602083018461187f565b9392505050565b600060c082019050611adc600083018961187f565b611ae9602083018861187f565b611af66040830187611a65565b8181036060830152611b0881866118bb565b9050611b176080830185611a65565b611b2460a083018461188e565b979650505050505050565b6000604082019050611b44600083018561187f565b611b516020830184611a65565b9392505050565b6000602082019050611b6d600083018461188e565b92915050565b6000608082019050611b88600083018761189d565b611b956020830186611a74565b611ba2604083018561189d565b611baf606083018461189d565b95945050505050565b6000602082019050611bcd60008301846118ac565b92915050565b60006020820190508181036000830152611bed81846118bb565b905092915050565b60006020820190508181036000830152611c0e816118f1565b9050919050565b60006020820190508181036000830152611c2e8161194e565b9050919050565b60006020820190508181036000830152611c4e816119ab565b9050919050565b60006020820190508181036000830152611c6e81611a08565b9050919050565b6000602082019050611c8a6000830184611a65565b92915050565b6000604051905081810181811067ffffffffffffffff82111715611cb357600080fd5b8060405250919050565b600067ffffffffffffffff821115611cd457600080fd5b601f19601f8301169050602081019050919050565b600067ffffffffffffffff821115611d0057600080fd5b601f19601f8301169050602081019050919050565b600067ffffffffffffffff821115611d2c57600080fd5b601f19601f8301169050602081019050919050565b600081519050919050565b600073ffffffffffffffffffffffffffffffffffffffff82169050919050565b60008115159050919050565b6000819050919050565b6000819050919050565b600060ff82169050919050565b600073ffffffffffffffffffffffffffffffffffffffff82169050919050565b60008115159050919050565b6000819050919050565b6000611dda82611d4c565b9050919050565b82818337600083830152505050565b60005b83811015611e0e578082015181840152602081019050611df3565b83811115611e1d576000848401525b50505050565b6000601f19601f83011690509190505600a265627a7a72305820b681df6f7a4adfac3ca743e25834479ee0ea25f2a339445f3df52964df94347e6c6578706572696d656e74616cf50037",
  "source": "pragma experimental ABIEncoderV2;\n\n// TODO: import from open-zepplin\nimport \"openzeppelin-solidity/contracts/token/ERC20/MintableToken.sol\";\nimport \"openzeppelin-solidity/contracts/math/SafeMath.sol\";\nimport \"openzeppelin-solidity/contracts/ECRecovery.sol\";\n\nimport './OracleClient.sol';\n// import './lib/IFuturesFactory.sol';\n\ncontract FuturesFactory {\n\t\n\t// libs\n\tusing SafeMath for uint256;\n  \tusing ECRecovery for bytes32;\n\n  \t// market details\n\tOracleClient public oracleClient;\n\tstring public market;\n\taddress public token;\n\tuint256 public count;\n\n\t// future data structure\n\tstruct Future {\n\t\taddress maker;\n\t\taddress taker;\n\t\tuint256 value;\n\t\tstring thing;\n\t\tuint256 expiry;\n\t\tbool terminated;\n\t}\n\n\t// mapping the futures\n\tmapping (address => uint256[]) public futuresBySeller; \n\tmapping (uint256 => Future) public futures;\n\tmapping (address => uint256) public margin;\n\n\t// futures event triggers\n\tevent Permit(address indexed who, uint256 indexed amount);\n\tevent Build(address indexed taker, uint256 indexed id, uint256 expiry);\n\tevent Strike(address indexed striker, uint256 indexed id,  uint256 time);\n\tevent Log(uint256 indexed value);\n\n\t/**\n\t\t* @dev deploy a Futures Factory & Oracle Client\t\n\t\t* @param _market The address of the LINK token contract\n\t\t* @param _token The address of the LINK token contract\n   */\n\tconstructor(string _market, address _token, address _oracle) public {\n\t\tmarket = _market;\n\t\ttoken = _token;\n\t\tcount = 0;\n\t\toracleClient = OracleClient(_oracle);\n\t}\n\n\t/**\t\n\t\t* @dev This allows the approval for this contract to remove funds \n\n\t\t* @param _amount \t\tThe amount allowed to be transfered on order fulfillment\n\t*/\n\tfunction deposit(uint256 _amount) public returns(bool done) {\n\t\temit Log(_amount);\n\t\temit Log(MintableToken(token).allowance(msg.sender, address(this)));\n\t\tMintableToken(token).approve(address(this), _amount);\n\t\temit Log(MintableToken(token).allowance(msg.sender, address(this)));\n\t\treturn true;\n\t}\n\n\tfunction permit(uint256 _amount) public returns(bool done) {\n\t\temit Permit(msg.sender, _amount);\n\t\temit Permit(address(this), _amount);\n\t\tERC20(token).approve(address(this), _amount);\n\t\treturn true;\n\t}\n\n\t/**\t\n\t\t* @dev This calls an estimate for the market\n\t\t* @param _market \t\tThe calling market\n\t*/\n\tfunction quote(string _market) public returns(uint256 value) {\n\t\treturn oracleClient.estimate();\n\t}\n\n\t/**\n\t\t* @dev This function builds a futures contract, called by a taker\n\n\t\t* @param _future \tThe future struct\n\t*/\n\tfunction build(Future memory _future, bytes memory _sig) public returns(bool done) {\n\t// function build(address _sellerAddr, uint256 _value, uint256 _expiry, bytes32 _thing, bytes32 _sig) payable external returns(bool done) {\n\t\t\n\t\t// TODO: solve reentrancy attack with nonce\n\t\tbytes32 message = keccak256(abi.encodePacked(_future.maker, _future.value, _future.thing, _future.expiry));\n\t\tbytes32 preFixedMessage = message.toEthSignedMessageHash();\n\n\t\t// check the correct seller signer the message\n\t\trequire(_future.maker == ECRecovery.recover(preFixedMessage, _sig), \"FuturesFactory#build: INCORRECT_SIGNER\");\n\n\t\temit Log(ERC20(token).allowance(msg.sender, address(this)));\n\t\t// allow to transfer\n\t\trequire(permit(_future.value), \"FuturesFactory#build: APPROVAL_ERROR\");\n\t\temit Log(ERC20(token).allowance(msg.sender, address(this)));\n\n\t\t// check if funds are adequate\n\t\t// require(ERC20(token).transfer(address(this), _future.value), \"FuturesFactory#build: INADEQUATE_FUNDS_BY_TAKER\");\n\t\t// ERC20(token).transfer(address(this), _future.value);\n\n\t\t// check if funds are adequate\n\t\t// emit Permit(address(this), _amount);\n\n\t\t// ERC20(token).transferFrom(_future.maker, address(this), uint(_future.value));\n\t\t// Log( value);\n\t\t// require(ERC20(token).transferFrom(_future.maker, address(this), _future.value), \"FuturesFactory#build: INADEQUATE_FUNDS_BY_MAKER\");\n\n\t\t// add balance to the contract\n\t\t// margin[_future.taker] += _future.value;\n\t\t// margin[_future.maker] += _future.value;\n\n\t\t// creating factory index\n\t\tfuturesBySeller[ _future.maker].push(count);\n\t\tfutures[count] = _future;\n\t\tcount++;\n\n\t\temit Build(msg.sender, count, _future.expiry);\n\n\t\treturn true;\n\t}\n\n\n\t/**\n\t\t* @dev This function closes a futures contract, called by a buyer or seller\n\n\t\t* @param _id \t\t\tThe id of the contract on-chain\n\t*/\n\tfunction strike(uint256 _id) external returns(bool done) {\n\t   \t\n\t   \t// check owner\n\t   \trequire(futures[_id].taker == msg.sender || futures[_id].maker == msg.sender, \"FuturesFactory#strike: NOT_FUTURE_PARTICIPANT\");\n\t   \t\n\t   \t// check if the time is after a certin date\n\t   \trequire(futures[_id].expiry <= now, \"FuturesFactory#strike: INADEQUATE_FUNDS\");\n\t   \t\n\t   \t// check if the price is equal\n\t   \tuint256 value = futures[_id].value;\n\t   \t// uint256 indexValue = oracleClient.estimate();\n\t   \t// uint256 indexValue = oracleClient.getIndex();\n\n\t   \t// require(indexValue >= value, \"FuturesFactory#strike: VALUE_NOT_AT_STRIKE_LEVEL\");\n\n\t   \t//terminate future\n\t   \tfutures[_id].terminated = true;\n\n\t\t// transfer funds\n\t   \t// if(difference > 0) {\n\t\t   \t// ER20(buyer).send(value);\n   \t\t// } else{\n\t\t   \t// ER20(seller).send(value);\n   \t\t// }\n\n\t   \temit Strike(msg.sender, _id, now);\n\n\t   \treturn true;\n\t}\n\n\tfunction() public payable {}  \n}",
  "sourcePath": "/home/vgrok/Projects/ethmoney/minimal-viable-eth-futures/contracts/FuturesFactory.sol",
  "compiler": {
    "name": "solc",
    "version": "0.4.24+commit.e67f0147.Emscripten.clang"
  },
  "schemaVersion": "3.1.0",
  "updatedAt": "2020-05-14T01:44:21.919Z",
  "devdoc": {
    "methods": {
      "build((address,address,uint256,string,uint256,bool),bytes)": {
        "details": "This function builds a futures contract, called by a taker",
        "params": {
          "_future": "The future struct"
        }
      },
      "deposit(uint256)": {
        "details": "This allows the approval for this contract to remove funds ",
        "params": {
          "_amount": "The amount allowed to be transfered on order fulfillment"
        }
      },
      "quote(string)": {
        "details": "This calls an estimate for the market",
        "params": {
          "_market": "The calling market"
        }
      },
      "strike(uint256)": {
        "details": "This function closes a futures contract, called by a buyer or seller",
        "params": {
          "_id": "The id of the contract on-chain"
        }
      }
    }
  },
  "userdoc": {
    "methods": {}
  }
}